:100000000C948B000C94AA000C94AA000C94AA00E7
:100010000C94AA000C94AA000C94AA000C94AA00B8
:100020000C94AA000C94AA000C94AA000C94AA00A8
:100030000C94AA000C945D020C94AA000C94AA00E3
:100040000C94AA000C94AA000C94AA000C94AA0088
:100050000C94AA000C94AA000C94AA000C94AA0078
:100060000C94AA000C94AA000C94AA000C94AA0068
:100070000C94AA000C94AA000C94AA000C94AA0058
:100080000C94AA000C94AA000C94AA002B035D0304
:100090005D035D035D035D035D035D035D035D0360
:1000A0005D035D035D035D035D035D035D035D0350
:1000B0005D035D035D035D035D035D035D035D0340
:1000C0005D035D035D035D035D035D035D035D0330
:1000D0005D035A035D035D035D035D035D035D0323
:1000E00055035D035D035D035D035D0358032E034C
:1000F0003103340337033A033D034003430346030C
:100100005D035D035D035D035D035D035D03490303
:100110004C034F03520311241FBECFEFD0E4DEBFC8
:10012000CDBF11E0A0E0B1E0EAE1F7E000E00BBFF5
:1001300002C007900D92A231B107D9F711E0A2E1F8
:10014000B1E001C01D92AA31B107E1F70E94190385
:100150000C948B030C940000CF93C82F8A3019F4B1
:100160008DE00E94AC009091C00095FFFCCFC09341
:10017000C60080E090E0CF9108950F931F93CF9336
:10018000DF93B62FA72FF82FE92F022F132FD42F8D
:10019000C52F04C0062F172FD82FC92F6B2F7A2FEA
:1001A0008F2F9E2F202F312F4D2F5C2F0E94600309
:1001B000B02FA12FFD2FEC2F611571058105910541
:1001C00049F7602F712F8D2F9C2FDF91CF911F91B9
:1001D0000F910895442349F021E030E002C0220F3E
:1001E000331F6A95E2F7822B089521E030E002C0C8
:1001F000220F331F6A95E2F720958223089521E0AC
:1002000030E002C0220F331F6A95E2F7822308957F
:1002100040E050E00CC000002F5F3F4F02C020E0E4
:1002200030E0273063E03607B4F34F5F5F4F481785
:100230005907ACF308955E9888B95F9A00005F98FB
:1002400082E090E00E94080108955E9A88B95F9A62
:1002500000005F9881E090E00E94080108958131DC
:1002600020F481580E941B01089581550E941B01B2
:10027000089581E00E941B01089584E690E00E94A9
:10028000080188E30E941B0186E00E941B018FE0A9
:100290000E941B0181E00E941B018AE090E00E9405
:1002A00008010895EF92FF920F931F93CF93DF936E
:1002B000182FEB010E9439010EC001E0010F812FC0
:1002C0000E942F017E018FEFE81AF80A88810E94B0
:1002D0002501102FE70188818111EFCFDF91CF91A8
:1002E0001F910F91FF90EF90089540E064E08FEF31
:1002F0000E94EA0082B9000080B160E080950E940F
:10030000FF00811180C080B161E080950E94FF00F4
:1003100081117BC080B162E080950E94FF00811155
:1003200076C080B163E080950E94FF00811171C0AA
:1003300040E065E08FEF0E94EA0082B9000080B1E2
:1003400060E080950E94FF00811165C080B161E08E
:1003500080950E94FF00811160C080B162E08095AD
:100360000E94FF0081115BC080B163E080950E9414
:10037000FF00811156C040E066E08FEF0E94EA0066
:1003800082B9000080B160E080950E94FF00811179
:100390004AC080B161E080950E94FF00811145C094
:1003A00080B162E080950E94FF00811140C080B161
:1003B00063E080950E94FF0081113BC040E067E050
:1003C0008FEF0E94EA0082B9000080B160E0809562
:1003D0000E94FF0081112FC080B161E080950E94D2
:1003E000FF0081112AC080B162E080950E94FF0069
:1003F000811125C080B163E080950E94FF008823B1
:10040000F9F084E4089581E3089584E3089587E38F
:1004100008958AE2089582E3089585E3089588E3C4
:10042000089580E3089583E3089586E3089589E3BA
:10043000089583E2089581E4089582E4089583E4B1
:1004400008956093000170930101809302019093DD
:100450000301609315017093160180931701909327
:10046000180108958BE0809381008DE790E09093D0
:1004700089008093880082E080936F00109285004D
:10048000109284008091000190910101A0910201DD
:10049000B09103018093150190931601A093170169
:1004A000B09318018FB780688FBF089510928100B4
:1004B000089581E08093190108951F920F920FB65D
:1004C0000F9211240BB60F922F933F934F935F938C
:1004D0006F937F938F939F93AF93BF93EF93FF930C
:1004E0008091150190911601A0911701B09118010A
:1004F0000197A109B1098093150190931601A0936A
:100500001701B0931801892B8A2B8B2B91F40E9431
:1005100059028091000190910101A0910201B091D6
:1005200003018093150190931601A0931701B093D6
:100530001801FF91EF91BF91AF919F918F917F91A2
:100540006F915F914F913F912F910F900BBE0F9044
:100550000FBE0F901F9018959C0190B190959170CF
:100560002130310531F02230310549F0232B51F48F
:1005700003C082E090E008C0892F90E005C0892F79
:1005800090E002C080E090E08130910539F421E0F4
:1005900030911201311120E020931201089500974B
:1005A00019F0019741F00EC081E090911201911174
:1005B00080E090E009C081E090911201911180E00B
:1005C00090E002C080E090E08130910539F421E0B4
:1005D00030911401311120E0209314010895009707
:1005E00019F0019741F00EC081E090911201911134
:1005F00080E090E009C081E090911201911180E0CB
:1006000090E002C080E090E08130910539F421E073
:1006100030911301311120E020931301089580914E
:100620001301880F90911401892B85B980E090E027
:1006300008958FEF84B915B880EF81B98FE082B942
:100640000E94750190E085349105B8F5FC01EA5BE4
:10065000FF4F0C9482038FE185B9F2CF81E085B919
:10066000EFCF82E085B9ECCF83E085B9E9CF84E0B4
:1006700085B9E6CF85E085B9E3CF86E085B9E0CFDF
:1006800087E085B9DDCF88E085B9DACF89E085B923
:10069000D7CF8AE085B9D4CF8BE085B9D1CF8CE0B4
:1006A00085B9CECF8DE085B9CBCF8EE085B9C8CFE7
:1006B00015B8C6CF8FE085B9C3CF8BE185B9C0CF60
:1006C000A1E21A2EAA1BBB1BFD010DC0AA1FBB1F56
:1006D000EE1FFF1FA217B307E407F50720F0A21BC8
:1006E000B30BE40BF50B661F771F881F991F1A9435
:1006F00069F760957095809590959B01AC01BD015F
:10070000CF010895EE0FFF1F0024001C0BBE0790C1
:0A071000F691E02D0994F894FFCF54
:10071A00010000000000000200000000AC00000020
:02072A000000CD
:00000001FF
